:020000040800F2
:1000000000280020CD1A0008D9110008E1110008CD
:10001000E9110008F1110008F911000800000000C2
:1000200000000000000000000000000001120008B5
:100030000D12000800000000191200082512000827
:10004000151B0008151B0008151B0008151B0008D0
:10005000151B0008151B0008151B0008151B0008C0
:10006000151B0008151B0008151B0008151B0008B0
:10007000151B0008151B0008151B0008151B0008A0
:10008000151B0008151B0008151B0008151B000890
:10009000151B0008151B0008151B0008151B000880
:1000A000151B0008151B0008151B0008151B000870
:1000B00031120008151B000800000000151B000885
:1000C000151B00080000000000000000151B0008C0
:1000D00000000000151B0008151B000800000000B0
:1000E000151B0008151B0008151B00080000000068
:1000F0000000000000000000000000000000000000
:0C01000000000000000000005FF808F1A3
:10010C0010B5054C237833B9044B13B10448AFF345
:10011C0000800123237010BD980000200000000017
:10012C004C31000808B5034B1BB103490348AFF32E
:10013C00008008BD000000009C0000204C3100082D
:10014C0080B582B000AF78607B685A687B689A6033
:10015C007B681A687B685A607B68DA697B681B8CE1
:10016C001946104601F0BEFF03461A467B681A601A
:10017C007B681A687B685B689A422DD17B685A68E9
:10018C007B689B689A4227D17B689A687B68DB689E
:10019C009A420ED07B689A687B68DA607B68DB6871
:1001AC00002B19D17B6837221A617B6801225A61B6
:1001BC0012E07B681B695A1E7B681A617B681B699D
:1001CC00002B09DC7B6837221A617B68DB68002B0B
:1001DC0002D17B6801229A6100BF0837BD4680BD01
:1001EC0080B483B000AF78607B685B69012B04D16D
:1001FC007B6800225A61012300E0002318460C376B
:10020C00BD4680BC704780B483B000AF78607B681B
:10021C009B69012B04D17B6800229A61012300E0C9
:10022C00002318460C37BD4680BC704780B483B0A1
:10023C0000AF78607B6800225A617B6800229A616B
:10024C0000BF0C37BD4680BC7047000080B400AFC7
:10025C00074B00221A60064B00225A60044B002206
:10026C009A60034B0022DA6000BFBD4680BC704729
:10027C00B800002080B500AF00224FF480710B480D
:10028C0001F047FF00224FF40071084801F041FFD4
:10029C0000224FF48061054801F03BFF00224FF42F
:1002AC000061024801F035FF00BF80BD000801402D
:1002BC0080B500AF1B4B1B681B4A52F82330002B38
:1002CC0021D1184B1B68012B03D1184B1B68002B39
:1002DC000ED1144B1B68032B03D1144B9B68002BC2
:1002EC0006D1104B1B68114A52F82330002B0AD050
:1002FC000C4B1A680B4B1B680C4951F823301946F0
:10030C00104600F06BF8074B1B680133054A13606D
:10031C00044B1B68032B02DD024B00221A6000BF4A
:10032C0080BD00BFB4000020B80000206C0000208D
:10033C0080B400AF254B1B68254A82FB0312921038
:10034C00DB17D11A224B83FB01239A10CB17D21A3D
:10035C0013469B0013445B00CA1A1E4B1A601B4BBE
:10036C0019681B4B83FB01239A10CB17D21A134627
:10037C009B0013445B00CA1A164B5A60164B1B6841
:10038C00134A82FB03129210DB17D11A104B83FB1A
:10039C0001239A10CB17D21A13469B0013445B000F
:1003AC00CA1A0C4B9A600C4B1968094B83FB01233E
:1003BC009A10CB17D21A13469B0013445B00CA1A2F
:1003CC00044BDA6000BFBD4680BC7047C8000020FB
:1003DC00676666666C000020CC00002080B582B099
:1003EC0000AF78603960FFF745FF386800F008F817
:1003FC00786800F0F1F900BF0837BD4680BD0000F9
:10040C0080B582B000AF78607B68092B00F2B481B4
:10041C0001A252F823F000BF4D0400089F0400080D
:10042C00F10400084305000895050008E7050008DD
:10043C00390600088B060008DD0600082F070008A7
:10044C0000220121CB4801F064FE00220221C948A0
:10045C0001F05FFE00220421C64801F05AFE002282
:10046C000821C44801F055FE00221021C14801F0BA
:10047C0050FE00222021BF4801F04BFE01224021FA
:10048C00BC4801F046FE01228021BA4801F041FE31
:10049C009BE101220121B74801F03BFE0022022121
:1004AC00B44801F036FE00220421B24801F031FEBE
:1004BC0001220821AF4801F02CFE01221021AD4889
:1004CC0001F027FE01222021AA4801F022FE012280
:1004DC004021A84801F01DFE01228021A54801F011
:1004EC0018FE72E100220121A24801F012FE002246
:1004FC000221A04801F00DFE012204219D4801F0CB
:10050C0008FE002208219B4801F003FE0022102166
:10051C00984801F0FEFD01222021964801F0F9FDDA
:10052C0000224021934801F0F4FD012280219148E2
:10053C0001F0EFFD49E1002201218E4801F0E9FDB7
:10054C00002202218B4801F0E4FD0022042189489D
:10055C0001F0DFFD00220821864801F0DAFD0122BE
:10056C001021844801F0D5FD01222021814801F0A1
:10057C00D0FD002240217F4801F0CBFD01228021DB
:10058C007C4801F0C6FD20E101220121794801F0EF
:10059C00C0FD00220221774801F0BBFD002204219E
:1005AC00744801F0B6FD01220821724801F0B1FD3A
:1005BC00012210216F4801F0ACFD002220216D4872
:1005CC0001F0A7FD002240216A4801F0A2FD0122A2
:1005DC008021684801F09DFDF7E00022012165486B
:1005EC0001F097FD01220221624801F092FD0022E8
:1005FC000421604801F08DFD002208215D4801F0C6
:10060C0088FD012210215B4801F083FD002220218E
:10061C00584801F07EFD00224021564801F079FD3A
:10062C0001228021534801F074FDCEE0002201210B
:10063C00504801F06EFD012202214E4801F069FD87
:10064C00002204214B4801F064FD00220821494896
:10065C0001F05FFD00221021464801F05AFD0022F6
:10066C002021444801F055FD00224021414801F071
:10067C0050FD012280213F4801F04BFDA5E00022F6
:10068C0001213C4801F045FD00220221394801F0CE
:10069C0040FD00220421374801F03BFD01220821D6
:1006AC00344801F036FD01221021324801F031FDB1
:1006BC00012220212F4801F02CFD012240212D4840
:1006CC0001F027FD012280212A4801F022FD7CE067
:1006DC0000220121274801F01CFD0022022125489F
:1006EC0001F017FD00220421224801F012FD002226
:1006FC000821204801F00DFD002210211D4801F0B9
:10070C0008FD002220211B4801F003FD002240219E
:10071C00184801F0FEFC01228021164801F0F9FC7A
:10072C0053E000220121134801F0F3FC00220221C6
:10073C00104801F0EEFC002204210E4801F0E9FC07
:10074C00002208210B4801F0E4FC01221021094889
:10075C0001F0DFFC00222021064801F0DAFC002227
:10076C004021044801F0D5FC01228021014801F010
:10077C00D0FC2AE00008014001220121154801F0BB
:10078C00C8FC01220221134801F0C3FC0122042100
:10079C00104801F0BEFC012208210E4801F0B9FC02
:1007AC00012210210B4801F0B4FC01222021094840
:1007BC0001F0AFFC01224021064801F0AAFC012205
:1007CC008021044801F0A5FC00BF00BF0837BD46DE
:1007DC0080BD00BF0008014080B582B000AF7860DA
:1007EC007B68032B6ED801A252F823F0090800088D
:1007FC003B0800086D0800089F08000801224FF410
:10080C008071334801F085FC00224FF400713048B0
:10081C0001F07FFC00224FF480612D4801F079FC3F
:10082C0000224FF400612A4801F073FC4BE00022D7
:10083C004FF48071264801F06CFC01224FF40071DA
:10084C00234801F066FC00224FF48061204801F03F
:10085C0060FC00224FF400611D4801F05AFC32E0AC
:10086C0000224FF480711A4801F053FC00224FF41F
:10087C000071174801F04DFC01224FF480611448BF
:10088C0001F047FC00224FF40061114801F041FCDB
:10089C0019E000224FF480710D4801F03AFC00225F
:1008AC004FF400710A4801F034FC00224FF48061CF
:1008BC00074801F02EFC01224FF40061044801F0BE
:1008CC0028FC00E000BF00BF0837BD4680BD00BF5C
:1008DC000008014080B500AF01F018F900F0D8FA1B
:1008EC004FF47A720021144800F0CAFB0A2200214E
:1008FC00124800F0C5FB0A220021114800F0C0FB91
:10090C00012200210F4800F0BBFB4FF47A7200214A
:10091C000D4800F0B5FB012200210C4800F0B0FBA3
:10092C0000F018F800F09EF800F050F8084802F0BB
:10093C004FF800F0FFFAFCE779120008511200089A
:10094C00AD130008BD1200085D1300084D1300081C
:10095C00DC00002080B590B000AF07F1180328220E
:10096C000021184602F0C0FB3B1D00221A605A60A1
:10097C009A60DA601A610223BB610123BB62102307
:10098C00FB6200237B6307F11803184601F0F2FBAE
:10099C000346002B01D000F0D9F80F237B60002315
:1009AC00BB600023FB6000233B6100237B613B1D8C
:1009BC000021184601F060FE0346002B01D000F028
:1009CC00C5F800BF4037BD4680BD000080B586B07D
:1009DC0000AF07F1080300221A605A609A60DA60CF
:1009EC003B4600221A605A601D4B4FF080421A6041
:1009FC001B4B40F21F325A60194B00229A60184B65
:100A0C000922DA60164B00221A61154B00229A61FA
:100A1C00134801F08DFF0346002B01D000F096F82F
:100A2C004FF48053BB6007F1080319460C4802F0E1
:100A3C000BF90346002B01D000F088F800233B6033
:100A4C0000237B603B461946054802F0E3FA034657
:100A5C00002B01D000F07AF800BF1837BD4680BDDE
:100A6C00DC00002080B586B000AF07F1080300223F
:100A7C001A605A609A60DA602C4B9B692B4A43F0DF
:100A8C0004039361294B9B6903F004037B607B682F
:100A9C00264B9B69254A43F008039361234B9B69C2
:100AAC0003F008033B603B68002241F2FF01204841
:100ABC0001F02FFB01224FF470611D4801F029FB5E
:100ACC0000224FF47C711B4801F023FB41F6FF73AD
:100ADC00BB600123FB6000233B6102237B6107F1B8
:100AEC0008031946124801F081F94FF4E043BB604A
:100AFC000023FB6000233B6107F1080319460D48F6
:100B0C0001F074F94FF47C73BB600123FB6000238C
:100B1C003B6102237B6107F108031946054801F08C
:100B2C0065F900BF1837BD4680BD00BF00100240FC
:100B3C0000080140000C014080B582B000AF786025
:100B4C0000F0B2F900BF0837BD4680BD80B400AFDD
:100B5C0072B600BF00BFFDE780B483B000AF124B8C
:100B6C004FF0FF321A60114B00221A6000237B6099
:100B7C000DE07B68591C0E487A6813465B001344E1
:100B8C00DB000344143319607B6801337B607B68A2
:100B9C00302BEEDD064B4FF0FF32C3F8AC2400BF18
:100BAC000C37BD4680BC704788000020D40500205F
:100BBC002401002080B483B000AF78601A497A68B1
:100BCC0013465B001344DB000B4400221A601649E9
:100BDC007A6813465B001344DB000B440433002299
:100BEC001A6011497A6813465B001344DB000B440E
:100BFC00083300221A600C497A6813465B001344D0
:100C0C00DB000B440C3300221A7007497A68134638
:100C1C005B001344DB000B44103300221A6000BF4E
:100C2C000C37BD4680BC70472401002080B483B0D3
:100C3C0000AF0E4B1B68B3F1FF3F02D14FF0FF33F7
:100C4C000FE00A4B1B687B60084B1A680849134677
:100C5C005B001344DB000B4414331B68034A136022
:100C6C007B6818460C37BD4680BC7047D405002005
:100C7C002401002080B485B000AF7860824B1B68E3
:100C8C00B3F1FF3F24D181497A6813465B001344CA
:100C9C00DB000B4404331B68002B09D17B497A68B9
:100CAC0013465B001344DB000B440C3301221A7017
:100CBC00754A7B681360744B1A68744913465B0061
:100CCC001344DB000B4414334FF0FF321A60D6E0B0
:100CDC006D4B1B68FB604FF0FF33BB609EE06B49B4
:100CEC00FA6813465B001344DB000B4404331968A9
:100CFC0066487A6813465B001344DB0003440433F4
:100D0C001B68994262D961497A6813465B001344A7
:100D1C00DB000B4404331B68002B09D15B497A6858
:100D2C0013465B001344DB000B440C3301221A7096
:100D3C0056497A6813465B001344DB000B441433AA
:100D4C00FA681A60BB68B3F1FF3F03D14E4A7B6867
:100D5C00136009E04D49BA6813465B001344DB008D
:100D6C000B4414337A681A604849FA6813465B00DE
:100D7C001344DB000B440433196844487A68134667
:100D8C005B001344DB00034404331B68C91A3F485F
:100D9C00FA6813465B001344DB0003440433196008
:100DAC003A49FA6813465B001344DB000B440433E6
:100DBC001B68002B62D13549FA6813465B0013445B
:100DCC00DB000B440C3301221A7057E02F497A6870
:100DDC0013465B001344DB000B44043319682B48A7
:100DEC00FA6813465B001344DB00034404331B68AE
:100DFC00C91A26487A6813465B001344DB00034487
:100E0C0004331960FB68BB602049FA6813465B0029
:100E1C001344DB000B4414331B68FB60FB68B3F119
:100E2C00FF3F7FF45CAF19497A6813465B001344AB
:100E3C00DB000B4404331B68002B09D113497A687F
:100E4C0013465B001344DB000B440C3301221A7075
:100E5C000E49BA6813465B001344DB000B44143391
:100E6C007A681A6009497A6813465B001344DB0000
:100E7C000B4414334FF0FF321A6000E000BF1437FC
:100E8C00BD4680BC704700BF8800002024010020B4
:100E9C0080B500AFFFF760FE024B00221A7000BF56
:100EAC0080BD00BFD805002080B400AF1F4B1B686D
:100EBC00B3F1FF3F36D01D4B1A681D4913465B003A
:100ECC001344DB000B4404331B68002B12D0174B6C
:100EDC001A68174913465B001344DB000B440433B8
:100EEC001B68591E124813465B001344DB00034475
:100EFC00043319600D4B1A680D4913465B001344FB
:100F0C00DB000B4404331B68002B0CD1074B1A6815
:100F1C00074913465B001344DB000B440C330122DE
:100F2C001A7000E000BFBD4680BC704788000020EE
:100F3C0024010020B0B586B000AF84E04D4B1A6898
:100F4C004D4913465B001344DB000B441B68984768
:100F5C00484B1A68484913465B001344DB000B44AA
:100F6C000C3300221A70434B1A68434913465B003A
:100F7C001344DB000B443C461D460FCD0FC42B68BD
:100F8C0023603C4B1B687B613A4B1A683A49134609
:100F9C005B001344DB000B4414331B68354A1360AD
:100FAC00344B1B68B3F1FF3F16D0324B1A683249F1
:100FBC0013465B001344DB000B4404331B68002B0B
:100FCC000AD12C4B1A682C4913465B001344DB00E6
:100FDC000B440C3301221A7027497A6913465B00C3
:100FEC001344DB000B4414334FF0FF321A60BB6820
:100FFC00002B11D17869FFF7DDFD204B19681E48D5
:10100C007A6913465B001344DB0003441433196004
:10101C001A4A7B69136016E0B96817487A69134657
:10102C005B001344DB0003440433196012497A69F2
:10103C0013465B001344DB000B440C3300221A7084
:10104C007869FFF717FE0B4B1B68B3F1FF3F0CD011
:10105C00084B1A68084913465B001344DB000B4429
:10106C000C331B78002B7FF469AF00BF1837BD46DB
:10107C00B0BD00BF8800002024010020D405002052
:10108C0080B586B000AFF860B9607A60FFF7CEFD2E
:10109C0078617B69B3F1FF3F04D11F4B01221A70B9
:1010AC00022334E01D497A6913465B001344DB00CC
:1010BC000B44FA681A6019497A6913465B001344A9
:1010CC00DB000B440433BA681A6014497A6913467E
:1010DC005B001344DB000B4408337A681A600F4939
:1010EC007A6913465B001344DB000B440C3300227B
:1010FC001A70796909487A6913465B001344DB005E
:10110C000344103319607869FFF7B4FD7B69184606
:10111C001837BD4680BD00BFD80500202401002033
:10112C0080B485B000AF154B9B69144A43F00103A2
:10113C009361124B9B6903F00103BB60BB680F4BBF
:10114C00DB690E4A43F08053D3610C4BDB6903F02F
:10115C0080537B607B680A4B5B68FB60FB6823F009
:10116C00E063FB60FB6843F00073FB60044AFB68C0
:10117C00536000BF1437BD4680BC7047001002405E
:10118C000000014080B584B000AF78607B681B68BC
:10119C00B3F1804F13D10C4BDB690B4A43F00103C5
:1011AC00D361094BDB6903F00103FB60FB68002290
:1011BC0000211C2000F0E3FD1C2000F0FCFD00BF12
:1011CC001037BD4680BD00BF0010024080B400AF98
:1011DC0000BFFDE780B400AF00BFFDE780B400AFF7
:1011EC0000BFFDE780B400AF00BFFDE780B400AFE7
:1011FC0000BFFDE780B400AF00BFBD4680BC7047A8
:10120C0080B400AF00BFBD4680BC704780B400AF57
:10121C0000BFBD4680BC704780B500AF00F0BCFC81
:10122C0000BF80BD80B500AF024801F01DFC00BFBF
:10123C0080BD00BFDC00002080B400AF00BFBD4605
:10124C0080BC704780B500AF0548FEF779FF0548B4
:10125C00FEF776FF0448FEF773FF00BF80BD00BFAA
:10126C0000000020240000204800002080B500AFC2
:10127C004FF48051024800F064FF00BF80BD00BFF6
:10128C000008014080B582B000AF78603960064A32
:10129C007B681360054A3B681360FFF749F800BF91
:1012AC000837BD4680BD00BFC8000020CC00002020
:1012BC0080B500AF204B1B78013B062B39D801A21F
:1012CC0052F823F0ED120008F3120008F91200088E
:1012DC00FF12000805130008171300082B13000851
:1012EC0000F0D2FA26E000F0F5FA23E000F018FB4B
:1012FC0020E000F03BFB1DE01021104800F021FF26
:10130C0080210E4800F01DFF14E020210B4800F056
:10131C0018FF4FF48071094800F013FF0AE04021D8
:10132C00064800F00EFF4FF40071044800F009FF6E
:10133C0000E000BF00BF80BDD9050020000C0140BB
:10134C0080B500AFFEF7F4FFFEF7B2FF00BF80BD23
:10135C0080B400AF0F4B1B78013B032B12D80E4B04
:10136C001B68002B04DD0C4B1B68013B0A4A136005
:10137C000A4B1B68002B07DD084B1B68013B074A17
:10138C00136001E000BF00E000BF00BFBD4680BCA1
:10139C00704700BFD9050020C8000020CC000020F9
:1013AC0080B500AFA14B1B78072B00F2D48101A2B2
:1013BC0052F823F0E113000801140008451400084A
:1013CC008B140008CD14000813150008C115000873
:1013DC00B316000800F058FA954B1B68954A126832
:1013EC0011461846FFF74EFFFEF730FF8F4B0122D8
:1013FC001A70C1E1904B1B68002B10DC00F06AFAEC
:10140C008B4B1A688B4B1B68D31A8C4A126811468B
:10141C001846FFF737FF854B02221A709FE1884868
:10142C00FEF7DEFE0346002B00F0998100F0C4FAB3
:10143C007E4B05221A7092E1824B1B68002B11DC4B
:10144C007D4B1B68002B0DDC00F06AFA794B1B6896
:10145C00774A126811461846FFF714FF734B0322A4
:10146C001A707EE17648FEF7BBFE0346002B00F0B7
:10147C00788100F0A1FA6D4B05221A7071E1714B65
:10148C001B68002B0FDC00F071FA6C4B1868684B72
:10149C001A68684B1B68D31A1946FFF7F3FE634BA7
:1014AC0004221A705FE16648FEF79AFE0346002B91
:1014BC0000F0598100F080FA5C4B05221A7052E161
:1014CC00604B1B68002B11DC5B4B1B68002B0DDC8D
:1014DC0000F0DAF9564B1B68564A1268114618464A
:1014EC00FFF7D0FE514B01221A703EE15448FEF733
:1014FC0077FE0346002B00F0388100F05DFA4B4B71
:10150C0005221A7031E15048FEF76AFE0346002BA3
:10151C0011D04E4B1B6801334C4A13604B4B1B686C
:10152C00632B02DD494B01221A60484B1B68454A6C
:10153C001360FEF7FDFE4448FEF765FE0346002BE4
:10154C0011D0424B1B680A33404A13603F4B1B6857
:10155C00632B02DD3D4B01221A603C4B1B68394A60
:10156C001360FEF7E5FE3648FEF73AFE0346002B05
:10157C0005D000F04DFA2D4B06221A70F7E03448D6
:10158C00FEF72EFE0346002B00F0F1802F4B1A685D
:10159C002A4B1B689A420ADD2C4B1B68244A1360A9
:1015AC00234B1A68254B1B68D31A224A136000F090
:1015BC0003FADCE02448FEF713FE0346002B11D09F
:1015CC00244B1B680133234A1360224B1B68632B8B
:1015DC0002DD204B01221A601E4B1B68194A136056
:1015EC00FEF7A6FE1848FEF70EFE0346002B11D0A0
:1015FC00184B1B680A33174A1360164B1B68632B76
:10160C0002DD144B01221A60124B1B680D4A136049
:10161C00FEF78EFE0A48FEF7E3FD0346002B1BD0B7
:10162C0000F022FA014B07221A70A2E0D905002023
:10163C007C00002084000020CC00002080000020D2
:10164C0000000020C800002024000020D000002052
:10165C0048000020D40000204848FEF7C1FD034696
:10166C00002B00F08680464B1A68464B1B689A424A
:10167C000BDB434B1A68444B1B681344414A136001
:10168C003F4B1B68414A13600AE03D4B1B683F4AC5
:10169C0013603C4B1A683D4B1B68D31A3A4A1360D3
:1016AC0000F0B6F965E03A48FEF79AFD0346002BC8
:1016BC0011D0384B1B680133364A1360354B1B680D
:1016CC00632B02DD334B01221A60324B1B68324A0A
:1016DC001360FEF72DFE2E48FEF795FD0346002BFA
:1016EC0011D02C4B1B680A332A4A1360294B1B68F8
:1016FC00632B02DD274B01221A60264B1B68264AFE
:10170C001360FEF715FE2548FEF76AFD0346002B15
:10171C000DD000F0B9F81B4B1B681B4A1268114620
:10172C001846FFF7AFFD1E4B01221A7023E0134839
:10173C00FEF756FD0346002B1DD0164B1B68124AB4
:10174C001360114B1A68114B1B6813440D4A13603C
:10175C0000F08AF90FE0124B00221A700CE000BF67
:10176C000AE000BF08E000BF06E000BF04E000BFD5
:10177C0002E000BF00E000BF00BF80BD48000020B9
:10178C00D40000207C000020840000208000002079
:10179C0024000020D8000020C800002000000020F9
:1017AC00D905002080B500AF002210210F4800F0B1
:1017BC00B0FC012220210D4800F0ABFC012240219D
:1017CC000A4800F0A6FC00228021084800F0A1FC89
:1017DC0001224FF48071054800F09BFC01224FF46C
:1017EC000071024800F095FC00BF80BD000C014068
:1017FC0080B500AF012210210F4800F08AFC0022B6
:10180C0020210D4800F085FC012240210A4800F0FF
:10181C0080FC01228021084800F07BFC00224FF460
:10182C008071054800F075FC01224FF400710248EC
:10183C0000F06FFC00BF80BD000C014080B500AF14
:10184C00012210210F4800F064FC012220210D48D8
:10185C0000F05FFC002240210A4800F05AFC0122F3
:10186C008021084800F055FC01224FF48071054896
:10187C0000F04FFC00224FF40071024800F049FCCC
:10188C0000BF80BD000C014080B500AF00221021CC
:10189C000F4800F03EFC012220210D4800F039FCDD
:1018AC00012240210A4800F034FC01228021084822
:1018BC0000F02FFC01224FF48071054800F029FC48
:1018CC0000224FF40071024800F023FC00BF80BDE1
:1018DC00000C014080B500AF002210210F4800F031
:1018EC0018FC012220210D4800F013FC012240219C
:1018FC000A4800F00EFC01228021084800F009FC87
:10190C0000224FF48071054800F003FC01224FF4D3
:10191C000071024800F0FDFB00BF80BD000C0140CF
:10192C0080B500AF012210210F4800F0F2FB01221C
:10193C0020210D4800F0EDFB002240210A4800F068
:10194C00E8FB00228021084800F0E3FB01224FF461
:10195C008071054800F0DDFB01224FF40071024854
:10196C0000F0D7FB00BF80BD000C014080B500AF7C
:10197C00012210210F4800F0CCFB002220210D4841
:10198C0000F0C7FB012240210A4800F0C2FB0022F4
:10199C008021084800F0BDFB01224FF480710548FE
:1019AC0000F0B7FB01224FF40071024800F0B1FBCC
:1019BC0000BF80BD000C014080B500AF0D48FEF7A4
:1019CC0035FC0D48FEF732FC0C48FEF72FFC0C4B97
:1019DC001B680C4A1360FFF7E5FEFEF737FC094B5A
:1019EC001B68094A1360094B00221A60FEF7A0FC21
:1019FC0000BF80BD00000020240000204800002013
:101A0C007C000020D0000020C8000020CC0000206A
:101A1C0080B500AF0D48FEF709FC0D48FEF706FC3B
:101A2C000C48FEF703FC0C4B1B680C4A1360FFF7C9
:101A3C00DFFEFEF70BFC094B1B68094A1360094BD0
:101A4C0000221A60FEF774FC00BF80BD000000206D
:101A5C00240000204800002080000020D40000203A
:101A6C00C8000020CC00002080B500AF0D48FEF768
:101A7C00DDFB0D48FEF7DAFB0C48FEF7D7FB0C4BF1
:101A8C001B680C4A1360FFF7D9FEFEF7DFFB094B0E
:101A9C001B68094A1360094B00221A60FEF748FCC8
:101AAC0000BF80BD00000020240000204800002062
:101ABC0084000020D8000020C8000020CC000020AA
:101ACC00FFF7BAFB0B480C490C4A002302E0D45830
:101ADC00C4500433C4188C42F9D3094A094C00236E
:101AEC0001E013600432A242FBD301F005FBFEF7C8
:101AFC00F1FE704700000020980000209031000893
:101B0C0098000020E0050020FEE7000080B500AF43
:101B1C00084B1B68074A43F010031360032000F0C6
:101B2C0023F90F2000F008F8FFF7FAFA0023184603
:101B3C0080BD00BF0020024080B582B000AF78604D
:101B4C00124B1A68124B1B7819464FF47A73B3FB7D
:101B5C00F1F3B2FBF3F3184600F03BF90346002B0C
:101B6C0001D001230EE07B680F2B0AD80022796884
:101B7C004FF0FF3000F003F9064A7B681360002336
:101B8C0000E0012318460837BD4680BD8C000020BC
:101B9C00940000209000002080B400AF054B1B780F
:101BAC001A46054B1B681344034A136000BFBD461D
:101BBC0080BC704794000020DC05002080B400AF8E
:101BCC00024B1B681846BD4680BC7047DC050020E4
:101BDC0080B485B000AF78607B6803F00703FB60CE
:101BEC000C4BDB68BB60BA684FF6FF031340BB605D
:101BFC00FB681A02BB68134343F0BF6343F4003322
:101C0C00BB60044ABB68D36000BF1437BD4680BCC0
:101C1C00704700BF00ED00E080B400AF044BDB6800
:101C2C001B0A03F007031846BD4680BC704700BF73
:101C3C0000ED00E080B483B000AF0346FB7197F970
:101C4C000730002B0BDBFB7903F01F02064997F9D9
:101C5C0007305B09012000FA02F241F8232000BF93
:101C6C000C37BD4680BC704700E100E080B483B007
:101C7C0000AF03463960FB7197F90730002B0ADB84
:101C8C003B68DAB20C4997F907301201D2B20B4417
:101C9C0083F800230AE03B68DAB20849FB7903F0C9
:101CAC000F03043B1201D2B20B441A7600BF0C375F
:101CBC00BD4680BC704700BF00E100E000ED00E0D5
:101CCC0080B489B000AFF860B9607A60FB6803F04B
:101CDC000703FB61FB69C3F10703042B28BF042333
:101CEC00BB61FB690433062B02D9FB69033B00E0A3
:101CFC0000237B614FF0FF32BB6902FA03F3DA4336
:101D0C00BB681A407B699A404FF0FF317B6901FA3E
:101D1C0003F3D9437B680B40134318462437BD4665
:101D2C0080BC704780B582B000AF78607B68013BA7
:101D3C00B3F1807F01D301230FE00A4A7B68013B9A
:101D4C0053600F214FF0FF30FFF790FF054B00223F
:101D5C009A60044B07221A60002318460837BD46C8
:101D6C0080BD00BF10E000E080B582B000AF7860AD
:101D7C007868FFF72DFF00BF0837BD4680BD80B5E2
:101D8C0086B000AF0346B9607A60FB7300237B61B9
:101D9C00FFF742FF78617A68B9687869FFF790FFBE
:101DAC00024697F90F3011461846FFF75FFF00BF48
:101DBC001837BD4680BD80B582B000AF0346FB71BD
:101DCC0097F907301846FFF735FF00BF0837BD46B7
:101DDC0080BD80B582B000AF78607868FFF7A2FF55
:101DEC00034618460837BD4680BD000080B48BB052
:101DFC0000AF7860396000237B6200233B6261E1B5
:101E0C0001227B6A02FA03F3FB613B681B68FA69E7
:101E1C001340BB61BA69FB699A4240F050813B6840
:101E2C005B68974A93425ED0954A934275D8954A1F
:101E3C00934258D0934A93426FD8934A934252D0CC
:101E4C00914A934269D8914A93424CD08F4A93421B
:101E5C0063D88F4A934246D08D4A93425DD8122B59
:101E6C002AD8122B59D801A252F823F0F31E0008DD
:101E7C00CD1E0008DF1E0008211F0008271F0008C8
:101E8C00271F0008271F0008271F0008271F00080E
:101E9C00271F0008271F0008271F0008271F0008FE
:101EAC00271F0008271F0008271F0008271F0008EE
:101EBC00D51E0008E91E0008764A934213D02CE088
:101ECC003B68DB683B6229E03B68DB6804333B62C0
:101EDC0024E03B68DB6808333B621FE03B68DB684F
:101EEC000C333B621AE03B689B68002B02D1042345
:101EFC003B6213E03B689B68012B05D108233B62D6
:101F0C007B68FA691A6109E008233B627B68FA690D
:101F1C005A6103E000233B6200E000BFBB69FF2B6A
:101F2C0001D87B6801E07B6804337B61BB69FF2BC4
:101F3C0002D87B6A9B0002E07B6A083B9B003B61FA
:101F4C007B691A680F213B6901FA03F3DB431A40E2
:101F5C00396A3B6901FA03F31A437B691A603B68DF
:101F6C005B6803F08053002B00F0A9804A4B9B69FF
:101F7C00494A43F001039361474B9B6903F001030A
:101F8C00BB60BB68454A7B6A9B08023352F823301E
:101F9C00FB607B6A03F003039B000F2202FA03F33E
:101FAC00DB43FA681340FB607B683D4A93420DD0DB
:101FBC007B683C4A934207D07B683B4A934201D1F1
:101FCC00022304E0032302E0012300E000237A6AE9
:101FDC0002F0030292009340FA681343FB602F490E
:101FEC007B6A9B080233FA6841F823203B685B68E4
:101FFC0003F48013002B06D02C4B9A682B49BB6939
:10200C0013438B6006E0294B9A68BB69DB43274975
:10201C0013408B603B685B6803F40013002B06D005
:10202C00224BDA682149BB691343CB6006E01F4B96
:10203C00DA68BB69DB431D491340CB603B685B68C6
:10204C0003F40033002B06D0184B5A681749BB69B0
:10205C0013434B6006E0154B5A68BB69DB431349CD
:10206C0013404B603B685B6803F48033002B1FD03C
:10207C000E4B1A680D49BB6913430B601FE000BF80
:10208C00000032100000311000002210000021105E
:10209C00000012100000111000100240000001405E
:1020AC0000080140000C01400010014000040140F8
:1020BC000B4B1A68BB69DB43094913400B607B6A05
:1020CC0001337B623B681A687B6A22FA03F3002BAC
:1020DC007FF496AE00BF00BF2C37BD4680BC704766
:1020EC000004014080B485B000AF78600B467B8063
:1020FC007B689A687B881340002B02D00123FB730A
:10210C0001E00023FB73FB7B18461437BD4680BCF3
:10211C00704780B483B000AF78600B467B80134669
:10212C007B707B78002B03D07A887B681A6103E084
:10213C007B881A047B681A6100BF0C37BD4680BCD3
:10214C00704780B485B000AF78600B467B807B68AD
:10215C00DB68FB607A88FB6813401A04FB68D94380
:10216C007B880B401A437B681A6100BF1437BD464D
:10217C0080BC704780B586B000AF78607B68002B60
:10218C0001D1012372E27B681B6803F00103002B71
:10219C0000F08780924B5B6803F00C03042B0CD08F
:1021AC008F4B5B6803F00C03082B12D18C4B5B68D4
:1021BC0003F48033B3F5803F0BD1894B1B6803F4D8
:1021CC000033002B6CD07B685B68002B68D101233B
:1021DC004CE27B685B68B3F5803F06D1804B1B6893
:1021EC007F4A43F4803313602EE07B685B68002BDE
:1021FC000CD17B4B1B687A4A23F480331360784BE9
:10220C001B68774A23F4802313601DE07B685B68AE
:10221C00B3F5A02F0CD1724B1B68714A43F4802389
:10222C0013606F4B1B686E4A43F4803313600BE0F2
:10223C006B4B1B686A4A23F480331360684B1B6832
:10224C00674A23F4802313607B685B68002B13D0F0
:10225C00FFF7B4FC386108E0FFF7B0FC02463B69BD
:10226C00D31A642B01D9032300E25D4B1B6803F4E2
:10227C000033002BF0D014E0FFF7A0FC386108E02D
:10228C00FFF79CFC02463B69D31A642B01D903234C
:10229C00ECE1534B1B6803F40033002BF0D100E04E
:1022AC0000BF7B681B6803F00203002B63D04C4B10
:1022BC005B6803F00C03002B0BD0494B5B6803F0FD
:1022CC000C03082B1CD1464B5B6803F48033002BAA
:1022DC0016D1434B1B6803F00203002B05D07B681F
:1022EC001B69012B01D00123C0E13D4B1B6823F07E
:1022FC00F8027B685B69DB00394913430B603AE0F9
:10230C007B681B69002B20D0364B01221A60FFF72B
:10231C0055FC386108E0FFF751FC02463B69D31AC3
:10232C00022B01D90323A1E12D4B1B6803F00203FF
:10233C00002BF0D02A4B1B6823F0F8027B685B69FA
:10234C00DB00274913430B6015E0264B00221A6073
:10235C00FFF734FC386108E0FFF730FC02463B69BC
:10236C00D31A022B01D9032380E11D4B1B6803F008
:10237C000203002BF0D17B681B6803F00803002BD1
:10238C003AD07B689B69002B19D0174B01221A603D
:10239C00FFF714FC386108E0FFF710FC02463B69BC
:1023AC00D31A022B01D9032360E10D4B5B6A03F0B6
:1023BC000203002BF0D0012000F09CFA1CE00A4B29
:1023CC0000221A60FFF7FAFB38610FE0FFF7F6FB0B
:1023DC0002463B69D31A022B08D9032346E100BFFE
:1023EC00001002400000424280044242924B5B6A61
:1023FC0003F00203002BE9D17B681B6803F0040394
:10240C00002B00F0A6800023FB758B4BDB6903F0DF
:10241C008053002B0DD1884BDB69874A43F08053E6
:10242C00D361854BDB6903F08053BB60BB68012330
:10243C00FB75824B1B6803F48073002B18D17F4B08
:10244C001B687E4A43F480731360FFF7B7FB386157
:10245C0008E0FFF7B3FB02463B69D31A642B01D9A2
:10246C00032303E1754B1B6803F48073002BF0D03E
:10247C007B68DB68012B06D16F4B1B6A6E4A43F0FD
:10248C00010313622DE07B68DB68002B0CD16A4BD7
:10249C001B6A694A23F001031362674B1B6A664A85
:1024AC0023F0040313621CE07B68DB68052B0CD162
:1024BC00614B1B6A604A43F0040313625E4B1B6A58
:1024CC005D4A43F0010313620BE05B4B1B6A5A4AF3
:1024DC0023F001031362584B1B6A574A23F0040381
:1024EC0013627B68DB68002B15D0FFF767FB386144
:1024FC000AE0FFF763FB02463B69D31A41F28832CC
:10250C00934201D90323B1E04B4B1B6A03F0020346
:10251C00002BEED014E0FFF751FB38610AE0FFF717
:10252C004DFB02463B69D31A41F28832934201D9E2
:10253C0003239BE0404B1B6A03F00203002BEED1FC
:10254C00FB7D012B05D13C4BDB693B4A23F08053CF
:10255C00D3617B68DB69002B00F08780364B5B68AE
:10256C0003F00C03082B61D07B68DB69022B46D18E
:10257C00334B00221A60FFF721FB386108E0FFF7AC
:10258C001DFB02463B69D31A022B01D903236DE0D4
:10259C00294B1B6803F00073002BF0D17B681B6A7E
:1025AC00B3F5803F08D1244B5B6823F400327B6881
:1025BC009B68214913434B601F4B5B6823F47412D7
:1025CC007B68196A7B685B6A0B431B4913434B603E
:1025DC001B4B01221A60FFF7F1FA386108E0FFF794
:1025EC00EDFA02463B69D31A022B01D903233DE0D5
:1025FC00114B1B6803F00073002BF0D035E0104B2F
:10260C0000221A60FFF7DAFA386108E0FFF7D6FA11
:10261C0002463B69D31A022B01D9032326E0064B51
:10262C001B6803F00073002BF0D11EE07B68DB69A4
:10263C00012B07D1012319E000100240007000406B
:10264C00600042420B4B5B68FB60FB6803F480321A
:10265C007B681B6A9A4206D1FB6803F470127B6894
:10266C005B6A9A4201D0012300E000231846183718
:10267C00BD4680BD0010024080B584B000AF7860CC
:10268C0039607B68002B01D10123D0E06A4B1B68B9
:10269C0003F007033A689A4210D9674B1B6823F082
:1026AC00070265493B6813430B60634B1B6803F0DF
:1026BC0007033A689A4201D00123B8E07B681B6893
:1026CC0003F00203002B20D07B681B6803F004038B
:1026DC00002B05D0594B5B68584A43F4E0635360B8
:1026EC007B681B6803F00803002B05D0534B5B6819
:1026FC00524A43F460535360504B5B6823F0F00232
:10270C007B689B684D4913434B607B681B6803F0E7
:10271C000103002B40D07B685B68012B07D1474B32
:10272C001B6803F40033002B15D101237FE07B6879
:10273C005B68022B07D1414B1B6803F00073002B25
:10274C0009D1012373E03D4B1B6803F00203002BFE
:10275C0001D101236BE0394B5B6823F003027B68EA
:10276C005B68364913434B60FFF728FAF8600AE0C0
:10277C00FFF724FA0246FB68D31A41F288329342DF
:10278C0001D9032353E02D4B5B6803F00C027B68EB
:10279C005B689B009A42EBD1274B1B6803F0070345
:1027AC003A689A4210D2244B1B6823F00702224944
:1027BC003B6813430B60204B1B6803F007033A681C
:1027CC009A4201D0012332E07B681B6803F00403BA
:1027DC00002B08D0194B5B6823F4E0627B68DB6844
:1027EC00164913434B607B681B6803F00803002BEE
:1027FC0009D0124B5B6823F460527B681B69DB00C9
:10280C000E4913434B6000F021F802460B4B5B68FA
:10281C001B0903F00F030A49CB5C22FA03F3094AA4
:10282C001360094B1B681846FFF786F900231846FE
:10283C001037BD4680BD00BF002002400010024092
:10284C00643100088C0000209000002080B487B018
:10285C0000AF0023FB600023BB6000237B610023DF
:10286C007B6000233B611E4B5B68FB60FB6803F0E5
:10287C000C03042B02D0082B03D027E0194B3B612F
:10288C0027E0FB689B0C03F00F03174AD35C7B60BB
:10289C00FB6803F48033002B10D0114B5B685B0C8E
:1028AC0003F00103114AD35CBB607B680D4A03FB48
:1028BC0002F2BB68B2FBF3F37B6104E07B680C4A69
:1028CC0002FB03F37B617B693B6102E0054B3B61DF
:1028DC0000BF3B6918461C37BD4680BC704700BF23
:1028EC000010024000127A00743100088431000894
:1028FC0000093D0080B485B000AF78600A4B1B68BE
:10290C000A4AA2FB03235B0A7A6802FB03F3FB600F
:10291C0000BFFB685A1EFA60002BF9D100BF00BF44
:10292C001437BD4680BC70478C000020D34D62101C
:10293C0080B582B000AF78607B68002B01D1012399
:10294C0041E07B6893F83D30DBB2002B06D17B680D
:10295C00002283F83C207868FEF714FC7B68022286
:10296C0083F83D207B681A687B680433194610464F
:10297C0000F056FA7B68012283F846207B6801221E
:10298C0083F83E207B68012283F83F207B6801227C
:10299C0083F840207B68012283F841207B68012268
:1029AC0083F842207B68012283F843207B68012254
:1029BC0083F844207B68012283F845207B68012240
:1029CC0083F83D20002318460837BD4680BD000023
:1029DC0080B485B000AF78607B6893F83D30DBB293
:1029EC00012B01D0012335E07B68022283F83D20C6
:1029FC007B681B68DA687B681B6842F00102DA604E
:102A0C007B681B68164A934209D07B681B68B3F13C
:102A1C00804F04D07B681B68124A934211D17B68AB
:102A2C001B689B6803F00703FB60FB68062B10D048
:102A3C007B681B681A687B681B6842F001021A608D
:102A4C0007E07B681B681A687B681B6842F0010210
:102A5C001A60002318461437BD4680BC704700BF6F
:102A6C00002C01400004004080B584B000AF7860B9
:102A7C007B681B68DB68FB607B681B681B69BB6041
:102A8C00BB6803F00203002B20D0FB6803F00203A9
:102A9C00002B1BD07B681B686FF002021A617B68ED
:102AAC0001221A777B681B689B6903F00303002BD8
:102ABC0003D0786800F098F905E0786800F08BF99D
:102ACC00786800F09AF97B6800221A77BB6803F0EB
:102ADC000403002B20D0FB6803F00403002B1BD055
:102AEC007B681B686FF004021A617B6802221A77FC
:102AFC007B681B689B6903F44073002B03D07868D8
:102B0C0000F072F905E0786800F065F9786800F07B
:102B1C0074F97B6800221A77BB6803F00803002B5A
:102B2C0020D0FB6803F00803002B1BD07B681B68CC
:102B3C006FF008021A617B6804221A777B681B68A5
:102B4C00DB6903F00303002B03D0786800F04CF929
:102B5C0005E0786800F03FF9786800F04EF97B6882
:102B6C0000221A77BB6803F01003002B20D0FB68FF
:102B7C0003F01003002B1BD07B681B686FF0100256
:102B8C001A617B6808221A777B681B68DB6903F47F
:102B9C004073002B03D0786800F026F905E07868C4
:102BAC0000F019F9786800F028F97B6800221A7790
:102BBC00BB6803F00103002B0CD0FB6803F001038E
:102BCC00002B07D07B681B686FF001021A617868D4
:102BDC00FDF7B2FFBB6803F08003002B0CD0FB6841
:102BEC0003F08003002B07D07B681B686FF080021A
:102BFC001A61786800F06FFABB6803F04003002B91
:102C0C000CD0FB6803F04003002B07D07B681B68DB
:102C1C006FF040021A61786800F0F8F8BB6803F0B6
:102C2C002003002B0CD0FB6803F02003002B07D0F3
:102C3C007B681B686FF020021A61786800F042FA1A
:102C4C0000BF1037BD4680BD80B584B000AF786042
:102C5C0039600023FB737B6893F83C30012B01D166
:102C6C000223B4E07B68012283F83C207B680222BB
:102C7C0083F83D207B681B689B68BB60BB6823F0B6
:102C8C007703BB60BB6823F47F43BB607B681B6826
:102C9C00BA689A603B681B68B3F5005F3ED0B3F529
:102CAC00005F00F28780B3F5805F00F08680B3F59B
:102CBC00805F7FD8702B1AD0702B7BD8602B50D0B4
:102CCC00602B77D8502B3CD0502B73D8402B58D03E
:102CDC00402B6FD8302B64D0302B6BD8202B60D08E
:102CEC00202B67D8002B5CD0102B5AD062E07B686D
:102CFC0018683B6899683B685A683B68DB6800F069
:102D0C006AF97B681B689B68BB60BB6843F0770300
:102D1C00BB607B681B68BA689A604FE07B68186878
:102D2C003B6899683B685A683B68DB6800F053F96C
:102D3C007B681B689A687B681B6842F480429A60C7
:102D4C003CE07B6818683B6859683B68DB681A464E
:102D5C0000F0CAF87B681B685021184600F021F976
:102D6C002CE07B6818683B6859683B68DB681A463E
:102D7C0000F0E8F87B681B686021184600F011F938
:102D8C001CE07B6818683B6859683B68DB681A462E
:102D9C0000F0AAF87B681B684021184600F001F986
:102DAC000CE07B681A683B681B681946104600F0FB
:102DBC00F8F803E00123FB7300E000BF7B680122FD
:102DCC0083F83D207B68002283F83C20FB7B18466F
:102DDC001037BD4680BD80B483B000AF786000BFB3
:102DEC000C37BD4680BC704780B483B000AF7860B0
:102DFC0000BF0C37BD4680BC704780B483B000AFB9
:102E0C00786000BF0C37BD4680BC704780B483B07F
:102E1C0000AF786000BF0C37BD4680BC7047000027
:102E2C0080B485B000AF786039607B681B68FB604C
:102E3C007B682B4A934207D07B68B3F1804F03D059
:102E4C007B68284A934208D1FB6823F07003FB602F
:102E5C003B685B68FA681343FB607B68204A9342CB
:102E6C0007D07B68B3F1804F03D07B681D4A934237
:102E7C0008D1FB6823F44073FB603B68DB68FA689D
:102E8C001343FB60FB6823F080023B685B691343D0
:102E9C00FB607B68FA681A603B689A687B68DA6248
:102EAC003B681A687B689A627B680D4A934203D12F
:102EBC003B681A697B681A637B6801225A617B68DC
:102ECC001B6903F00103002B05D07B681B6923F001
:102EDC0001027B681A6100BF1437BD4680BC704785
:102EEC00002C01400004004080B487B000AFF860B3
:102EFC00B9607A60FB681B6A7B61FB681B6A23F014
:102F0C000102FB681A62FB689B693B613B6923F019
:102F1C00F0033B617B681B013A6913433B617B699E
:102F2C0023F00A037B617A69BB6813437B61FB68FE
:102F3C003A699A61FB687A691A6200BF1C37BD4610
:102F4C0080BC704780B487B000AFF860B9607A601D
:102F5C00FB681B6A7B61FB681B6A23F01002FB6831
:102F6C001A62FB689B693B613B6923F470433B61CC
:102F7C007B681B033A6913433B617B6923F0A00315
:102F8C007B61BB681B017A6913437B61FB683A69FF
:102F9C009A61FB687A691A6200BF1C37BD4680BC17
:102FAC00704780B485B000AF786039607B689B68EF
:102FBC00FB60FB6823F07003FB603A68FB6813430B
:102FCC0043F00703FB607B68FA689A6000BF143714
:102FDC00BD4680BC704780B487B000AFF860B96064
:102FEC007A603B60FB689B687B617B6923F47F4361
:102FFC007B613B681A027B681A43BB6813437A698E
:10300C0013437B61FB687A699A6000BF1C37BD462D
:10301C0080BC704780B485B000AF786039607B6845
:10302C0093F83C30012B01D1022341E07B68012253
:10303C0083F83C207B68022283F83D207B681B6868
:10304C005B68FB607B681B689B68BB60FB6823F05C
:10305C007003FB603B681B68FA681343FB607B687A
:10306C001B68FA685A607B681B68144A934209D043
:10307C007B681B68B3F1804F04D07B681B68104AD7
:10308C0093420CD1BB6823F08003BB603B685B6848
:10309C00BA681343BB607B681B68BA689A607B682C
:1030AC00012283F83D207B68002283F83C2000231A
:1030BC0018461437BD4680BC704700BF002C014039
:1030CC000004004080B483B000AF786000BF0C37C0
:1030DC00BD4680BC704780B483B000AF786000BF41
:1030EC000C37BD4680BC704703460244934200D166
:1030FC00704703F8011BF9E770B500260C4D0D4C19
:10310C00641BA410A64209D100F01AF800260A4D3F
:10311C000A4C641BA410A64205D170BD55F8043BA3
:10312C0098470136EEE755F8043B98470136F2E72D
:10313C008831000888310008883100088C3100087B
:10314C00F8B500BFF8BC08BC9E467047F8B500BF88
:08315C00F8BC08BC9E46704758
:103164000000000000000000010203040607080933
:1031740002030405060708090A0B0C0D0E0F1010B4
:043184000102000044
:043188003101000809
:04318C000D01000829
:10319000010000000100000001000000010000002B
:1031A000F40100000000000000000000000C0140DD
:1031B00000100000010000000100000001000000FC
:1031C00001000000F4010000000000000000000009
:1031D000000C014000200000010000000100000080
:1031E0000100000001000000F401000000000000E8
:1031F00000000000000C0140004000000000000042
:1032000005000000000000000300000004000000B2
:103210000100000003000000FFFFFFFF00127A0022
:08322000100000000100000095
:0400000508001ACD08
:00000001FF
