:020000040800F2
:1000000000280020FD170008D90C0008E10C0008AA
:10001000E90C0008F10C0008F90C000800000000D1
:10002000000000000000000000000000010D0008BA
:100030000D0D000800000000190D0008250D000836
:10004000451800084518000845180008451800081C
:10005000451800084518000845180008451800080C
:1000600045180008451800084518000845180008FC
:1000700045180008451800084518000845180008EC
:1000800045180008451800084518000845180008DC
:1000900045180008451800084518000845180008CC
:1000A00045180008451800084518000845180008BC
:1000B000310D000845180008000000004518000830
:1000C0004518000800000000000000004518000866
:1000D0000000000045180008451800080000000056
:1000E00045180008451800084518000800000000E1
:1000F0000000000000000000000000000000000000
:0C01000000000000000000005FF808F1A3
:10010C0010B5054C237833B9044B13B10448AFF345
:10011C0000800123237010BD94000020000000001B
:10012C007C2E000808B5034B1BB103490348AFF301
:10013C00008008BD00000000980000207C2E000804
:10014C0080B582B000AF78607B685A687B689A6033
:10015C007B681A687B685A607B68DA697B681B8CE1
:10016C001946104601F056FE03461A467B681A6083
:10017C007B681A687B685B689A422DD17B685A68E9
:10018C007B689B689A4227D17B689A687B68DB689E
:10019C009A420ED07B689A687B68DA607B68DB6871
:1001AC00002B19D17B6837221A617B6801225A61B6
:1001BC0012E07B681B695A1E7B681A617B681B699D
:1001CC00002B09DC7B6837221A617B68DB68002B0B
:1001DC0002D17B6801229A6100BF0837BD4680BD01
:1001EC0080B483B000AF78607B685B69012B04D16D
:1001FC007B6800225A61012300E0002318460C376B
:10020C00BD4680BC704780B483B000AF78607B681B
:10021C009B69012B04D17B6800229A61012300E0C9
:10022C00002318460C37BD4680BC704780B483B0A1
:10023C0000AF78607B6800225A617B6800229A616B
:10024C0000BF0C37BD4680BC7047000080B400AFC7
:10025C00074B00221A60064B00225A60044B002206
:10026C009A60034B0022DA6000BFBD4680BC704729
:10027C00B400002080B500AF00224FF480710B4811
:10028C0001F0DFFD00224FF40071084801F0D9FDA8
:10029C0000224FF48061054801F0D3FD00224FF499
:1002AC000061024801F0CDFD00BF80BD0008014097
:1002BC0080B500AF1B4B1B681B4A52F82330002B38
:1002CC0021D1184B1B68012B03D1184B1B68002B39
:1002DC000ED1144B1B68032B03D1144B9B68002BC2
:1002EC0006D1104B1B68114A52F82330002B0AD050
:1002FC000C4B1A680B4B1B680C4951F823301946F0
:10030C00104600F06BF8074B1B680133054A13606D
:10031C00044B1B68032B02DD024B00221A6000BF4A
:10032C0080BD00BFB0000020B40000206C00002095
:10033C0080B400AF254B1B68254A82FB0312921038
:10034C00DB17D11A224B83FB01239A10CB17D21A3D
:10035C0013469B0013445B00CA1A1E4B1A601B4BBE
:10036C0019681B4B83FB01239A10CB17D21A134627
:10037C009B0013445B00CA1A164B5A60164B1B6841
:10038C00134A82FB03129210DB17D11A104B83FB1A
:10039C0001239A10CB17D21A13469B0013445B000F
:1003AC00CA1A0C4B9A600C4B1968094B83FB01233E
:1003BC009A10CB17D21A13469B0013445B00CA1A2F
:1003CC00044BDA6000BFBD4680BC7047C4000020FF
:1003DC00676666666C000020C800002080B582B09D
:1003EC0000AF78603960FFF745FF386800F008F817
:1003FC00786800F0F1F900BF0837BD4680BD0000F9
:10040C0080B582B000AF78607B68092B00F2B481B4
:10041C0001A252F823F000BF4D0400089F0400080D
:10042C00F10400084305000895050008E7050008DD
:10043C00390600088B060008DD0600082F070008A7
:10044C0000220121CB4801F0FCFC00220221C9480A
:10045C0001F0F7FC00220421C64801F0F2FC002256
:10046C000821C44801F0EDFC00221021C14801F024
:10047C00E8FC00222021BF4801F0E3FC01224021CE
:10048C00BC4801F0DEFC01228021BA4801F0D9FC05
:10049C009BE101220121B74801F0D3FC002202218B
:1004AC00B44801F0CEFC00220421B24801F0C9FC92
:1004BC0001220821AF4801F0C4FC01221021AD48F3
:1004CC0001F0BFFC01222021AA4801F0BAFC012254
:1004DC004021A84801F0B5FC01228021A54801F07B
:1004EC00B0FC72E100220121A24801F0AAFC00221A
:1004FC000221A04801F0A5FC012204219D4801F035
:10050C00A0FC002208219B4801F09BFC002210213A
:10051C00984801F096FC01222021964801F091FCAC
:10052C0000224021934801F08CFC0122802191484B
:10053C0001F087FC49E1002201218E4801F081FC89
:10054C00002202218B4801F07CFC00220421894806
:10055C0001F077FC00220821864801F072FC012290
:10056C001021844801F06DFC01222021814801F00A
:10057C0068FC002240217F4801F063FC01228021AD
:10058C007C4801F05EFC20E101220121794801F058
:10059C0058FC00220221774801F053FC0022042170
:1005AC00744801F04EFC01220821724801F049FC0C
:1005BC00012210216F4801F044FC002220216D48DB
:1005CC0001F03FFC002240216A4801F03AFC012274
:1005DC008021684801F035FCF7E0002201216548D4
:1005EC0001F02FFC01220221624801F02AFC0022BA
:1005FC000421604801F025FC002208215D4801F02F
:10060C0020FC012210215B4801F01BFC0022202160
:10061C00584801F016FC00224021564801F011FC0C
:10062C0001228021534801F00CFCCEE00022012174
:10063C00504801F006FC012202214E4801F001FC59
:10064C00002204214B4801F0FCFB00220821494800
:10065C0001F0F7FB00221021464801F0F2FB0022CA
:10066C002021444801F0EDFB00224021414801F0DB
:10067C00E8FB012280213F4801F0E3FBA5E00022CA
:10068C0001213C4801F0DDFB00220221394801F038
:10069C00D8FB00220421374801F0D3FB01220821AA
:1006AC00344801F0CEFB01221021324801F0C9FB85
:1006BC00012220212F4801F0C4FB012240212D48AA
:1006CC0001F0BFFB012280212A4801F0BAFB7CE03B
:1006DC0000220121274801F0B4FB00220221254809
:1006EC0001F0AFFB00220421224801F0AAFB0022FA
:1006FC000821204801F0A5FB002210211D4801F023
:10070C00A0FB002220211B4801F09BFB0022402172
:10071C00184801F096FB01228021164801F091FB4C
:10072C0053E000220121134801F08BFB002202212F
:10073C00104801F086FB002204210E4801F081FBD9
:10074C00002208210B4801F07CFB012210210948F2
:10075C0001F077FB00222021064801F072FB0022F9
:10076C004021044801F06DFB01228021014801F079
:10077C0068FB2AE00008014001220121154801F024
:10078C0060FB01220221134801F05BFB01220421D2
:10079C00104801F056FB012208210E4801F051FBD4
:1007AC00012210210B4801F04CFB012220210948A9
:1007BC0001F047FB01224021064801F042FB0122D7
:1007CC008021044801F03DFB00BF00BF0837BD4647
:1007DC0080BD00BF0008014080B582B000AF7860DA
:1007EC007B68032B6ED801A252F823F0090800088D
:1007FC003B0800086D0800089F08000801224FF410
:10080C008071334801F01DFB00224FF40071304819
:10081C0001F017FB00224FF480612D4801F011FB11
:10082C0000224FF400612A4801F00BFB4BE0002240
:10083C004FF48071264801F004FB01224FF4007143
:10084C00234801F0FEFA00224FF48061204801F0A9
:10085C00F8FA00224FF400611D4801F0F2FA32E080
:10086C0000224FF480711A4801F0EBFA00224FF489
:10087C000071174801F0E5FA01224FF48061144829
:10088C0001F0DFFA00224FF40061114801F0D9FAAF
:10089C0019E000224FF480710D4801F0D2FA0022C9
:1008AC004FF400710A4801F0CCFA00224FF4806139
:1008BC00074801F0C6FA01224FF40061044801F028
:1008CC00C0FA00E000BF00BF0837BD4680BD00BFC6
:1008DC000008014080B500AF00F0B0FF00F040F818
:1008EC0000F0C6F800F078F8184801F009FF4FF452
:1008FC007A71072000F036F90921002000F032F956
:10090C00072000F077F90346002B09D04FF48051F3
:10091C000F4801F0AEFA4FF47A71072000F022F97B
:10092C00002000F067F90346002B0CD00948FFF7B4
:10093C0007FC0948FFF704FC0848FFF701FC0921F4
:10094C00002000F00FF900F0FDF9D9E7D8000020E5
:10095C000008014000000020240000204800002076
:10096C0080B590B000AF07F118032822002118467B
:10097C0002F052FA3B1D00221A605A609A60DA604B
:10098C001A610223BB610123BB621023FB620023AB
:10099C007B6307F11803184601F084FA0346002B19
:1009AC0001D000F0D9F80F237B600023BB6000233B
:1009BC00FB6000233B6100237B613B1D002118463B
:1009CC0001F0F2FC0346002B01D000F0C5F800BF8B
:1009DC004037BD4680BD000080B586B000AF07F142
:1009EC00080300221A605A609A60DA603B460022C3
:1009FC001A605A601D4B4FF080421A601B4B40F23C
:100A0C001F325A60194B00229A60184B0922DA6087
:100A1C00164B00221A61154B00229A61134801F003
:100A2C001FFE0346002B01D000F096F84FF48053C4
:100A3C00BB6007F1080319460C4801F09DFF034603
:100A4C00002B01D000F088F800233B6000237B6072
:100A5C003B461946054802F075F90346002B01D0B8
:100A6C0000F07AF800BF1837BD4680BDD8000020D2
:100A7C0080B586B000AF07F1080300221A605A60F7
:100A8C009A60DA602C4B9B692B4A43F00403936108
:100A9C00294B9B6903F004037B607B68264B9B69A5
:100AAC00254A43F008039361234B9B6903F0080329
:100ABC003B603B68002241F2FF01204801F0C1F984
:100ACC0001224FF470611D4801F0BBF900224FF474
:100ADC007C711B4801F0B5F941F6FF73BB60012333
:100AEC00FB6000233B6102237B6107F1080319467D
:100AFC00124801F013F84FF4E043BB600023FB6095
:100B0C0000233B6107F1080319460D4801F006F874
:100B1C004FF47C73BB600123FB6000233B61022319
:100B2C007B6107F108031946054800F0F7FF00BF89
:100B3C001837BD4680BD00BF0010024000080140C0
:100B4C00000C014080B582B000AF786000F022F854
:100B5C0000BF0837BD4680BD80B400AF72B600BF81
:100B6C0000BFFDE780B483B000AF786039600849FE
:100B7C007B683A6841F83320054A7B68DB001344F4
:100B8C0000225A6000BF0C37BD4680BC704700BFC6
:100B9C002001002080B483B000AF00237B601DE0F7
:100BAC00134A7B6852F83330002B14DD104A7B68F3
:100BBC0052F833305A1E0E497B6841F833200C4AE8
:100BCC007B6852F83330002B05DC094A7B68DB006C
:100BDC00134401225A607B6801337B607B68092BCC
:100BEC00DEDD00BF00BF0C37BD4680BC704700BFC8
:100BFC002001002080B483B000AF7860074A7B6886
:100C0C00DB0013445B68002B01D0012300E00023C0
:100C1C0018460C37BD4680BC704700BF2001002031
:100C2C0080B485B000AF154B9B69144A43F00103A7
:100C3C009361124B9B6903F00103BB60BB680F4BC4
:100C4C00DB690E4A43F08053D3610C4BDB6903F034
:100C5C0080537B607B680A4B5B68FB60FB6823F00E
:100C6C00E063FB60FB6843F00073FB60044AFB68C5
:100C7C00536000BF1437BD4680BC70470010024063
:100C8C000000014080B584B000AF78607B681B68C1
:100C9C00B3F1804F13D10C4BDB690B4A43F00103CA
:100CAC00D361094BDB6903F00103FB60FB68002295
:100CBC0000211C2000F0FBFE1C2000F014FF00BFE4
:100CCC001037BD4680BD00BF0010024080B400AF9D
:100CDC0000BFFDE780B400AF00BFFDE780B400AFFC
:100CEC0000BFFDE780B400AF00BFFDE780B400AFEC
:100CFC0000BFFDE780B400AF00BFBD4680BC7047AD
:100D0C0080B400AF00BFBD4680BC704780B400AF5C
:100D1C0000BFBD4680BC704780B500AF00F0D4FD6D
:100D2C0000BF80BD80B500AF024801F035FD00BFAB
:100D3C0080BD00BFD800002080B400AF00BFBD460E
:100D4C0080BC704780B500AF8C4B1B78072B00F232
:100D5C00018101A252F823F0850D0008910D0008C5
:100D6C00C70D0008FD0D0008330E0008690E0008C1
:100D7C00B90E0008210F000800F01CFA7F4B01226D
:100D8C001A70F8E000F050FA0120FFF733FF034629
:100D9C00002B05D000F076FA784B02221A70DDE0B9
:100DAC007748FFF71DFA0346002B00F0D78000F0C0
:100DBC0099FB724B05221A70D0E000F099FA0120D1
:100DCC00FFF718FF0346002B05D000F0BFFA6B4B62
:100DDC0003221A70C4E06A48FFF702FA0346002B9C
:100DEC0000F0BE8000F07EFB644B05221A70B7E069
:100DFC0000F0E6FA0120FFF7FDFE0346002B05D0BC
:100E0C0000F00CFB5D4B04221A70ABE05C48FFF762
:100E1C00E7F90346002B00F0A58000F063FB574B6D
:100E2C0005221A709EE000F02FFB0120FFF7E2FE76
:100E3C000346002B05D000F0BDF9504B01221A706F
:100E4C0092E04F48FFF7CCF90346002B00F08C8062
:100E5C0000F048FB494B05221A7085E000F076FB48
:100E6C004748FFF7BDF90346002B05D000F0BCFB4B
:100E7C00424B06221A7079E04248FFF7B1F903465B
:100E8C00002B73D0404B1A68404B1B689A420ADD0A
:100E9C003D4B1B683E4A13603D4B1A683B4B1B682D
:100EAC00D31A3C4A136000F01DFB5FE000F0D0FB4E
:100EBC003348FFF795F90346002B05D000F016FCDC
:100ECC002E4B07221A7053E02E48FFF789F9034680
:100EDC00002B4DD0304B1A682D4B1B689A420BDB04
:100EEC002D4B1A682B4B1B681344294A13602A4B51
:100EFC001B68264A13600AE0274B1B68234A1360C1
:100F0C00234B1A68214B1B68D31A224A136000F03A
:100F1C006BFB2DE000F01EFC1948FFF761F903464E
:100F2C00002B05D000F046F9144B01221A7021E079
:100F3C001448FFF755F90346002B1BD0174B1B68C1
:100F4C00144A1360134B1A68104B1B681344104A55
:100F5C0013600FE0094B00221A700CE000BF0AE08E
:100F6C0000BF08E000BF06E000BF04E000BF02E0E5
:100F7C0000BF00E000BF00BF80BD00BF70010020BB
:100F8C000000002048000020CC0000208000002041
:100F9C007C00002084000020D0000020D400002021
:100FAC0080B500AF002210210F4800F04AFF01224B
:100FBC0020210D4800F045FF012240210A4800F095
:100FCC0040FF00228021084800F03BFF01224FF433
:100FDC008071054800F035FF01224FF40071024882
:100FEC0000F02FFF00BF80BD000C014080B500AFAA
:100FFC00012210210F4800F024FF002220210D486F
:10100C0000F01FFF012240210A4800F01AFF0122C4
:10101C008021084800F015FF00224FF4807105482C
:10102C0000F00FFF01224FF40071024800F009FF9D
:10103C0000BF80BD000C014080B500AF0122102123
:10104C000F4800F0FEFE012220210D4800F0F9FEB1
:10105C00002240210A4800F0F4FE012280210848B9
:10106C0000F0EFFE01224FF48071054800F0E9FE1C
:10107C0000224FF40071024800F0E3FE00BF80BD77
:10108C00000C014080B500AF002210210F4800F089
:10109C00D8FE012220210D4800F0D3FE0122402170
:1010AC000A4800F0CEFE01228021084800F0C9FE5B
:1010BC0001224FF48071054800F0C3FE00224FF46A
:1010CC000071024800F0BDFE00BF80BD000C014065
:1010DC0080B500AF002210210F4800F0B2FE0122B3
:1010EC0020210D4800F0ADFE012240210A4800F0FD
:1010FC00A8FE01228021084800F0A3FE00224FF434
:10110C008071054800F09DFE01224FF400710248E9
:10111C0000F097FE00BF80BD000C014080B500AF11
:10112C00012210210F4800F08CFE012220210D48D5
:10113C0000F087FE002240210A4800F082FE0022C7
:10114C008021084800F07DFE01224FF48071054893
:10115C0000F077FE01224FF40071024800F071FE9E
:10116C0000BF80BD000C014080B500AF01221021F2
:10117C000F4800F066FE002220210D4800F061FEB1
:10118C00012240210A4800F05CFE00228021084820
:10119C0000F057FE01224FF48071054800F051FE1B
:1011AC0001224FF40071024800F04BFE00BF80BDDD
:1011BC00000C014080B500AF144B1B684FF47A72E1
:1011CC0002FB03F319460120FFF7CCFC1048FFF794
:1011DC002DF81048FFF72AF80F48FFF727F8FFF70C
:1011EC0035F805210220FFF7BDFC4FF47A7104207D
:1011FC00FFF7B8FC094B1B68094A1360034B1B68CB
:10120C00084A1360FFF794F800BF80BD84000020EB
:10121C000000002024000020480000207C0000205A
:10122C00C4000020C800002080B500AFFFF72AFFE3
:10123C000220FFF7DFFC0346002B05D0FFF738F840
:10124C0005210220FFF78EFC0420FFF7D3FC034698
:10125C00002B10D0094B1B68013B084A1360084B4C
:10126C001B68013B064A1360FFF762F84FF47A7172
:10127C000420FFF777FC00BF80BD00BFC400002036
:10128C00C800002080B500AF134B1B684FF47A7276
:10129C0002FB03F319460120FFF764FC0F48FEF72D
:1012AC00C5FF0F48FEF7C2FFFEF7D0FF0521022055
:1012BC00FFF758FC4FF47A710420FFF753FC094BED
:1012CC001B68094A1360044B1B68084A1360FFF73C
:1012DC002FF800BF80BD00BF800000200000002060
:1012EC00240000207C000020C4000020C800002046
:1012FC0080B500AFFFF7ECFE0220FFF77BFC034646
:10130C00002B05D0FEF7D4FF05210220FFF72AFCA5
:10131C000420FFF76FFC0346002B10D0094B1B6811
:10132C00013B084A1360084B1B68013B064A1360DB
:10133C00FEF7FEFF4FF47A710420FFF713FC00BF99
:10134C0080BD00BFC4000020C800002080B500AFE5
:10135C00144B1B684FF47A7202FB03F319460120FD
:10136C00FFF700FC1048FEF761FF1048FEF75EFF28
:10137C000F48FEF75BFFFEF769FF05210220FFF720
:10138C00F1FB4FF47A710420FFF7ECFB054B1B6863
:10139C00084A1360084B1B68084A1360FEF7C8FF25
:1013AC0000BF80BD8400002000000020240000202D
:1013BC0048000020C40000207C000020C800002051
:1013CC0080B500AFFFF7AAFE0220FFF713FC03461F
:1013DC00002B05D0FEF76CFF05210220FFF7C2FBA6
:1013EC000420FFF707FC0346002B10D0094B1B68A9
:1013FC00013B084A1360084B1B68013B064A13600B
:10140C00FEF796FF4FF47A710420FFF7ABFB00BF99
:10141C0080BD00BFC4000020C800002080B500AF14
:10142C00134B1B684FF47A7202FB03F3194601202D
:10143C00FFF798FB0F48FEF7F9FE0F48FEF7F6FE94
:10144C00FEF704FF05210220FFF78CFB4FF47A71A5
:10145C000420FFF787FB064B1B68084A1360084BF8
:10146C001B68084A1360FEF763FF00BF80BD00BF16
:10147C00800000200000002024000020C400002078
:10148C007C000020C800002080B500AFFFF76CFE88
:10149C000220FFF7AFFB0346002B05D0FEF708FF39
:1014AC0005210220FFF75EFB0420FFF7A3FB034698
:1014BC00002B10D0094B1B68013B084A1360084BEA
:1014CC001B68013B064A1360FEF732FF4FF47A713A
:1014DC000420FFF747FB00BF80BD00BFC400002005
:1014EC00C800002080B500AF1148FEF79FFE1148E0
:1014FC00FEF79CFE1048FEF799FE104B1B68104A35
:10150C001360FFF74DFDFA210620FFF72BFBFEF7CA
:10151C009DFE0B4B1B680B4A13600B4B00221A6091
:10152C00FEF706FF05210220FFF71CFB00BF80BD64
:10153C000000002024000020480000207C00002037
:10154C00CC000020C4000020C800002080B500AFF3
:10155C002148FEF745FE0346002B04D01F4B1B68A9
:10156C0001331E4A13601C48FEF74DFE0346002B48
:10157C0004D01A4B1B680A33184A1360174B1B68AC
:10158C00632B02DD154B01221A60144B1B68144AA5
:10159C001360FEF7CDFE0620FFF72CFB0346002B55
:1015AC000BD010210F4800F064FC80210D4800F096
:1015BC0060FCFA210620FFF7D5FA0220FFF71AFB90
:1015CC000346002B05D0FEF773FE05210220FFF722
:1015DC00C9FA00BF80BD00BF24000020CC00002051
:1015EC00C4000020000C014080B500AF1148FEF78C
:1015FC001DFE1148FEF71AFE1048FEF717FE104BA1
:10160C001B68104A1360FFF7F1FCFA210620FFF764
:10161C00A9FAFEF71BFE0B4B1B680B4A13600B4B16
:10162C0000221A60FEF784FE05210220FFF79AFAC9
:10163C0000BF80BD000000202400002048000020D6
:10164C0080000020D0000020C4000020C800002032
:10165C0080B500AF2148FEF7C3FD0346002B04D034
:10166C001F4B1B6801331E4A13601C48FEF7CBFD51
:10167C000346002B04D01A4B1B680A33184A13601C
:10168C00174B1B68632B02DD154B01221A60144BA0
:10169C001B68144A1360FEF74BFE0620FFF7AAFAEC
:1016AC000346002B0CD020210F4800F0E2FB4FF436
:1016BC0080710D4800F0DDFBFA210620FFF752FA8D
:1016CC000220FFF797FA0346002B05D0FEF7F0FD3A
:1016DC0005210220FFF746FA00BF80BD2400002040
:1016EC00D0000020C4000020000C014080B500AFE9
:1016FC001148FEF79BFD1148FEF798FD1048FEF7C8
:10170C0095FD104B1B68104A1360FFF795FCFA21EE
:10171C000620FFF727FAFEF799FD0B4B1B680B4AC7
:10172C0013600B4B00221A60FEF702FE052102200B
:10173C00FFF718FA00BF80BD000000202400002035
:10174C004800002084000020D4000020C4000020A9
:10175C00C800002080B500AF2148FEF741FD0346CC
:10176C00002B04D01F4B1B6801331E4A13601C480E
:10177C00FEF749FD0346002B04D01A4B1B680A33B5
:10178C00184A1360174B1B68632B02DD154B0122A3
:10179C001A60144B1B68144A1360FEF7C9FD06202F
:1017AC00FFF728FA0346002B0CD040210F4800F01D
:1017BC0060FB4FF400710D4800F05BFBFA21062032
:1017CC00FFF7D0F90220FFF715FA0346002B05D0DE
:1017DC00FEF76EFD05210220FFF7C4F900BF80BDA6
:1017EC0024000020D4000020C4000020000C014084
:1017FC00FFF7A2FA0B480C490C4A002302E0D4581C
:10180C00C4500433C4188C42F9D3094A094C002340
:10181C0001E013600432A242FBD301F005FBFFF799
:10182C0059F870470000002094000020C02E0008DA
:10183C009400002078010020FEE7000080B500AF86
:10184C00084B1B68074A43F010031360032000F099
:10185C0023F90F2000F008F8FFF7E2F900231846EF
:10186C0080BD00BF0020024080B582B000AF786020
:10187C00124B1A68124B1B7819464FF47A73B3FB50
:10188C00F1F3B2FBF3F3184600F03BF90346002BDF
:10189C0001D001230EE07B680F2B0AD80022796857
:1018AC004FF0FF3000F003F9064A7B681360002309
:1018BC0000E0012318460837BD4680BD8800002093
:1018CC00900000208C00002080B400AF054B1B78EA
:1018DC001A46054B1B681344034A136000BFBD46F0
:1018EC0080BC7047900000207401002080B400AFD1
:1018FC00024B1B681846BD4680BC70477401002023
:10190C0080B485B000AF78607B6803F00703FB60A0
:10191C000C4BDB68BB60BA684FF6FF031340BB602F
:10192C00FB681A02BB68134343F0BF6343F40033F4
:10193C00BB60044ABB68D36000BF1437BD4680BC93
:10194C00704700BF00ED00E080B400AF044BDB68D3
:10195C001B0A03F007031846BD4680BC704700BF46
:10196C0000ED00E080B483B000AF0346FB7197F943
:10197C000730002B0BDBFB7903F01F02064997F9AC
:10198C0007305B09012000FA02F241F8232000BF66
:10199C000C37BD4680BC704700E100E080B483B0DA
:1019AC0000AF03463960FB7197F90730002B0ADB57
:1019BC003B68DAB20C4997F907301201D2B20B44EA
:1019CC0083F800230AE03B68DAB20849FB7903F09C
:1019DC000F03043B1201D2B20B441A7600BF0C3732
:1019EC00BD4680BC704700BF00E100E000ED00E0A8
:1019FC0080B489B000AFF860B9607A60FB6803F01E
:101A0C000703FB61FB69C3F10703042B28BF042305
:101A1C00BB61FB690433062B02D9FB69033B00E075
:101A2C0000237B614FF0FF32BB6902FA03F3DA4308
:101A3C00BB681A407B699A404FF0FF317B6901FA11
:101A4C0003F3D9437B680B40134318462437BD4638
:101A5C0080BC704780B582B000AF78607B68013B7A
:101A6C00B3F1807F01D301230FE00A4A7B68013B6D
:101A7C0053600F214FF0FF30FFF790FF054B002212
:101A8C009A60044B07221A60002318460837BD469B
:101A9C0080BD00BF10E000E080B582B000AF786080
:101AAC007868FFF72DFF00BF0837BD4680BD80B5B5
:101ABC0086B000AF0346B9607A60FB7300237B618C
:101ACC00FFF742FF78617A68B9687869FFF790FF91
:101ADC00024697F90F3011461846FFF75FFF00BF1B
:101AEC001837BD4680BD80B582B000AF0346FB7190
:101AFC0097F907301846FFF735FF00BF0837BD468A
:101B0C0080BD80B582B000AF78607868FFF7A2FF27
:101B1C00034618460837BD4680BD000080B48BB024
:101B2C0000AF7860396000237B6200233B6261E187
:101B3C0001227B6A02FA03F3FB613B681B68FA69BA
:101B4C001340BB61BA69FB699A4240F050813B6813
:101B5C005B68974A93425ED0954A934275D8954AF2
:101B6C00934258D0934A93426FD8934A934252D09F
:101B7C00914A934269D8914A93424CD08F4A9342EE
:101B8C0063D88F4A934246D08D4A93425DD8122B2C
:101B9C002AD8122B59D801A252F823F0231C000882
:101BAC00FD1B00080F1C0008511C0008571C0008E6
:101BBC00571C0008571C0008571C0008571C00082D
:101BCC00571C0008571C0008571C0008571C00081D
:101BDC00571C0008571C0008571C0008571C00080D
:101BEC00051C0008191C0008764A934213D02CE0FF
:101BFC003B68DB683B6229E03B68DB6804333B6293
:101C0C0024E03B68DB6808333B621FE03B68DB6821
:101C1C000C333B621AE03B689B68002B02D1042317
:101C2C003B6213E03B689B68012B05D108233B62A8
:101C3C007B68FA691A6109E008233B627B68FA69E0
:101C4C005A6103E000233B6200E000BFBB69FF2B3D
:101C5C0001D87B6801E07B6804337B61BB69FF2B97
:101C6C0002D87B6A9B0002E07B6A083B9B003B61CD
:101C7C007B691A680F213B6901FA03F3DB431A40B5
:101C8C00396A3B6901FA03F31A437B691A603B68B2
:101C9C005B6803F08053002B00F0A9804A4B9B69D2
:101CAC00494A43F001039361474B9B6903F00103DD
:101CBC00BB60BB68454A7B6A9B08023352F82330F1
:101CCC00FB607B6A03F003039B000F2202FA03F311
:101CDC00DB43FA681340FB607B683D4A93420DD0AE
:101CEC007B683C4A934207D07B683B4A934201D1C4
:101CFC00022304E0032302E0012300E000237A6ABC
:101D0C0002F0030292009340FA681343FB602F49E0
:101D1C007B6A9B080233FA6841F823203B685B68B6
:101D2C0003F48013002B06D02C4B9A682B49BB690B
:101D3C0013438B6006E0294B9A68BB69DB43274948
:101D4C0013408B603B685B6803F40013002B06D0D8
:101D5C00224BDA682149BB691343CB6006E01F4B69
:101D6C00DA68BB69DB431D491340CB603B685B6899
:101D7C0003F40033002B06D0184B5A681749BB6983
:101D8C0013434B6006E0154B5A68BB69DB431349A0
:101D9C0013404B603B685B6803F48033002B1FD00F
:101DAC000E4B1A680D49BB6913430B601FE000BF53
:101DBC000000321000003110000022100000211031
:101DCC000000121000001110001002400000014031
:101DDC0000080140000C01400010014000040140CB
:101DEC000B4B1A68BB69DB43094913400B607B6AD8
:101DFC0001337B623B681A687B6A22FA03F3002B7F
:101E0C007FF496AE00BF00BF2C37BD4680BC704738
:101E1C000004014080B485B000AF78600B467B8035
:101E2C007B689A687B881340002B02D00123FB73DC
:101E3C0001E00023FB73FB7B18461437BD4680BCC6
:101E4C00704780B483B000AF78600B467B8013463C
:101E5C007B707B78002B03D07A887B681A6103E057
:101E6C007B881A047B681A6100BF0C37BD4680BCA6
:101E7C00704780B485B000AF78600B467B807B6880
:101E8C00DB68FB607A88FB6813401A04FB68D94353
:101E9C007B880B401A437B681A6100BF1437BD4620
:101EAC0080BC704780B586B000AF78607B68002B33
:101EBC0001D1012372E27B681B6803F00103002B44
:101ECC0000F08780924B5B6803F00C03042B0CD062
:101EDC008F4B5B6803F00C03082B12D18C4B5B68A7
:101EEC0003F48033B3F5803F0BD1894B1B6803F4AB
:101EFC000033002B6CD07B685B68002B68D101230E
:101F0C004CE27B685B68B3F5803F06D1804B1B6865
:101F1C007F4A43F4803313602EE07B685B68002BB0
:101F2C000CD17B4B1B687A4A23F480331360784BBB
:101F3C001B68774A23F4802313601DE07B685B6881
:101F4C00B3F5A02F0CD1724B1B68714A43F480235C
:101F5C0013606F4B1B686E4A43F4803313600BE0C5
:101F6C006B4B1B686A4A23F480331360684B1B6805
:101F7C00674A23F4802313607B685B68002B13D0C3
:101F8C00FFF7B4FC386108E0FFF7B0FC02463B6990
:101F9C00D31A642B01D9032300E25D4B1B6803F4B5
:101FAC000033002BF0D014E0FFF7A0FC386108E000
:101FBC00FFF79CFC02463B69D31A642B01D903231F
:101FCC00ECE1534B1B6803F40033002BF0D100E021
:101FDC0000BF7B681B6803F00203002B63D04C4BE3
:101FEC005B6803F00C03002B0BD0494B5B6803F0D0
:101FFC000C03082B1CD1464B5B6803F48033002B7D
:10200C0016D1434B1B6803F00203002B05D07B68F1
:10201C001B69012B01D00123C0E13D4B1B6823F050
:10202C00F8027B685B69DB00394913430B603AE0CB
:10203C007B681B69002B20D0364B01221A60FFF7FE
:10204C0055FC386108E0FFF751FC02463B69D31A96
:10205C00022B01D90323A1E12D4B1B6803F00203D2
:10206C00002BF0D02A4B1B6823F0F8027B685B69CD
:10207C00DB00274913430B6015E0264B00221A6046
:10208C00FFF734FC386108E0FFF730FC02463B698F
:10209C00D31A022B01D9032380E11D4B1B6803F0DB
:1020AC000203002BF0D17B681B6803F00803002BA4
:1020BC003AD07B689B69002B19D0174B01221A6010
:1020CC00FFF714FC386108E0FFF710FC02463B698F
:1020DC00D31A022B01D9032360E10D4B5B6A03F089
:1020EC000203002BF0D0012000F09CFA1CE00A4BFC
:1020FC0000221A60FFF7FAFB38610FE0FFF7F6FBDE
:10210C0002463B69D31A022B08D9032346E100BFD0
:10211C00001002400000424280044242924B5B6A33
:10212C0003F00203002BE9D17B681B6803F0040366
:10213C00002B00F0A6800023FB758B4BDB6903F0B2
:10214C008053002B0DD1884BDB69874A43F08053B9
:10215C00D361854BDB6903F08053BB60BB68012303
:10216C00FB75824B1B6803F48073002B18D17F4BDB
:10217C001B687E4A43F480731360FFF7B7FB38612A
:10218C0008E0FFF7B3FB02463B69D31A642B01D975
:10219C00032303E1754B1B6803F48073002BF0D011
:1021AC007B68DB68012B06D16F4B1B6A6E4A43F0D0
:1021BC00010313622DE07B68DB68002B0CD16A4BAA
:1021CC001B6A694A23F001031362674B1B6A664A58
:1021DC0023F0040313621CE07B68DB68052B0CD135
:1021EC00614B1B6A604A43F0040313625E4B1B6A2B
:1021FC005D4A43F0010313620BE05B4B1B6A5A4AC6
:10220C0023F001031362584B1B6A574A23F0040353
:10221C0013627B68DB68002B15D0FFF767FB386116
:10222C000AE0FFF763FB02463B69D31A41F288329E
:10223C00934201D90323B1E04B4B1B6A03F0020319
:10224C00002BEED014E0FFF751FB38610AE0FFF7EA
:10225C004DFB02463B69D31A41F28832934201D9B5
:10226C0003239BE0404B1B6A03F00203002BEED1CF
:10227C00FB7D012B05D13C4BDB693B4A23F08053A2
:10228C00D3617B68DB69002B00F08780364B5B6881
:10229C0003F00C03082B61D07B68DB69022B46D161
:1022AC00334B00221A60FFF721FB386108E0FFF77F
:1022BC001DFB02463B69D31A022B01D903236DE0A7
:1022CC00294B1B6803F00073002BF0D17B681B6A51
:1022DC00B3F5803F08D1244B5B6823F400327B6854
:1022EC009B68214913434B601F4B5B6823F47412AA
:1022FC007B68196A7B685B6A0B431B4913434B6011
:10230C001B4B01221A60FFF7F1FA386108E0FFF766
:10231C00EDFA02463B69D31A022B01D903233DE0A7
:10232C00114B1B6803F00073002BF0D035E0104B01
:10233C0000221A60FFF7DAFA386108E0FFF7D6FAE4
:10234C0002463B69D31A022B01D9032326E0064B24
:10235C001B6803F00073002BF0D11EE07B68DB6977
:10236C00012B07D1012319E000100240007000403E
:10237C00600042420B4B5B68FB60FB6803F48032ED
:10238C007B681B6A9A4206D1FB6803F470127B6867
:10239C005B6A9A4201D0012300E0002318461837EB
:1023AC00BD4680BD0010024080B584B000AF78609F
:1023BC0039607B68002B01D10123D0E06A4B1B688C
:1023CC0003F007033A689A4210D9674B1B6823F055
:1023DC00070265493B6813430B60634B1B6803F0B2
:1023EC0007033A689A4201D00123B8E07B681B6866
:1023FC0003F00203002B20D07B681B6803F004035E
:10240C00002B05D0594B5B68584A43F4E06353608A
:10241C007B681B6803F00803002B05D0534B5B68EB
:10242C00524A43F460535360504B5B6823F0F00204
:10243C007B689B684D4913434B607B681B6803F0BA
:10244C000103002B40D07B685B68012B07D1474B05
:10245C001B6803F40033002B15D101237FE07B684C
:10246C005B68022B07D1414B1B6803F00073002BF8
:10247C0009D1012373E03D4B1B6803F00203002BD1
:10248C0001D101236BE0394B5B6823F003027B68BD
:10249C005B68364913434B60FFF728FAF8600AE093
:1024AC00FFF724FA0246FB68D31A41F288329342B2
:1024BC0001D9032353E02D4B5B6803F00C027B68BE
:1024CC005B689B009A42EBD1274B1B6803F0070318
:1024DC003A689A4210D2244B1B6823F00702224917
:1024EC003B6813430B60204B1B6803F007033A68EF
:1024FC009A4201D0012332E07B681B6803F004038D
:10250C00002B08D0194B5B6823F4E0627B68DB6816
:10251C00164913434B607B681B6803F00803002BC0
:10252C0009D0124B5B6823F460527B681B69DB009B
:10253C000E4913434B6000F021F802460B4B5B68CD
:10254C001B0903F00F030A49CB5C22FA03F3094A77
:10255C001360094B1B681846FFF786F900231846D1
:10256C001037BD4680BD00BF002002400010024065
:10257C00942E0008880000208C00002080B487B0C6
:10258C0000AF0023FB600023BB6000237B610023B2
:10259C007B6000233B611E4B5B68FB60FB6803F0B8
:1025AC000C03042B02D0082B03D027E0194B3B6102
:1025BC0027E0FB689B0C03F00F03174AD35C7B608E
:1025CC00FB6803F48033002B10D0114B5B685B0C61
:1025DC0003F00103114AD35CBB607B680D4A03FB1B
:1025EC0002F2BB68B2FBF3F37B6104E07B680C4A3C
:1025FC0002FB03F37B617B693B6102E0054B3B61B2
:10260C0000BF3B6918461C37BD4680BC704700BFF5
:10261C000010024000127A00A42E0008B42E00080C
:10262C0000093D0080B485B000AF78600A4B1B6890
:10263C000A4AA2FB03235B0A7A6802FB03F3FB60E2
:10264C0000BFFB685A1EFA60002BF9D100BF00BF17
:10265C001437BD4680BC704788000020D34D6210F3
:10266C0080B582B000AF78607B68002B01D101236C
:10267C0041E07B6893F83D30DBB2002B06D17B68E0
:10268C00002283F83C207868FEF7FCFA7B68022273
:10269C0083F83D207B681A687B6804331946104622
:1026AC0000F056FA7B68012283F846207B680122F1
:1026BC0083F83E207B68012283F83F207B6801224F
:1026CC0083F840207B68012283F841207B6801223B
:1026DC0083F842207B68012283F843207B68012227
:1026EC0083F844207B68012283F845207B68012213
:1026FC0083F83D20002318460837BD4680BD0000F6
:10270C0080B485B000AF78607B6893F83D30DBB265
:10271C00012B01D0012335E07B68022283F83D2098
:10272C007B681B68DA687B681B6842F00102DA6020
:10273C007B681B68164A934209D07B681B68B3F10F
:10274C00804F04D07B681B68124A934211D17B687E
:10275C001B689B6803F00703FB60FB68062B10D01B
:10276C007B681B681A687B681B6842F001021A6060
:10277C0007E07B681B681A687B681B6842F00102E3
:10278C001A60002318461437BD4680BC704700BF42
:10279C00002C01400004004080B584B000AF78608C
:1027AC007B681B68DB68FB607B681B681B69BB6014
:1027BC00BB6803F00203002B20D0FB6803F002037C
:1027CC00002B1BD07B681B686FF002021A617B68C0
:1027DC0001221A777B681B689B6903F00303002BAB
:1027EC0003D0786800F098F905E0786800F08BF970
:1027FC00786800F09AF97B6800221A77BB6803F0BE
:10280C000403002B20D0FB6803F00403002B1BD027
:10281C007B681B686FF004021A617B6802221A77CE
:10282C007B681B689B6903F44073002B03D07868AA
:10283C0000F072F905E0786800F065F9786800F04E
:10284C0074F97B6800221A77BB6803F00803002B2D
:10285C0020D0FB6803F00803002B1BD07B681B689F
:10286C006FF008021A617B6804221A777B681B6878
:10287C00DB6903F00303002B03D0786800F04CF9FC
:10288C0005E0786800F03FF9786800F04EF97B6855
:10289C0000221A77BB6803F01003002B20D0FB68D2
:1028AC0003F01003002B1BD07B681B686FF0100229
:1028BC001A617B6808221A777B681B68DB6903F452
:1028CC004073002B03D0786800F026F905E0786897
:1028DC0000F019F9786800F028F97B6800221A7763
:1028EC00BB6803F00103002B0CD0FB6803F0010361
:1028FC00002B07D07B681B686FF001021A617868A7
:10290C00FEF720F9BB6803F08003002B0CD0FB68AA
:10291C0003F08003002B07D07B681B686FF08002EC
:10292C001A61786800F06FFABB6803F04003002B63
:10293C000CD0FB6803F04003002B07D07B681B68AE
:10294C006FF040021A61786800F0F8F8BB6803F089
:10295C002003002B0CD0FB6803F02003002B07D0C6
:10296C007B681B686FF020021A61786800F042FAED
:10297C0000BF1037BD4680BD80B584B000AF786015
:10298C0039600023FB737B6893F83C30012B01D139
:10299C000223B4E07B68012283F83C207B6802228E
:1029AC0083F83D207B681B689B68BB60BB6823F089
:1029BC007703BB60BB6823F47F43BB607B681B68F9
:1029CC00BA689A603B681B68B3F5005F3ED0B3F5FC
:1029DC00005F00F28780B3F5805F00F08680B3F56E
:1029EC00805F7FD8702B1AD0702B7BD8602B50D087
:1029FC00602B77D8502B3CD0502B73D8402B58D011
:102A0C00402B6FD8302B64D0302B6BD8202B60D060
:102A1C00202B67D8002B5CD0102B5AD062E07B683F
:102A2C0018683B6899683B685A683B68DB6800F03B
:102A3C006AF97B681B689B68BB60BB6843F07703D3
:102A4C00BB607B681B68BA689A604FE07B6818684B
:102A5C003B6899683B685A683B68DB6800F053F93F
:102A6C007B681B689A687B681B6842F480429A609A
:102A7C003CE07B6818683B6859683B68DB681A4621
:102A8C0000F0CAF87B681B685021184600F021F949
:102A9C002CE07B6818683B6859683B68DB681A4611
:102AAC0000F0E8F87B681B686021184600F011F90B
:102ABC001CE07B6818683B6859683B68DB681A4601
:102ACC0000F0AAF87B681B684021184600F001F959
:102ADC000CE07B681A683B681B681946104600F0CE
:102AEC00F8F803E00123FB7300E000BF7B680122D0
:102AFC0083F83D207B68002283F83C20FB7B184642
:102B0C001037BD4680BD80B483B000AF786000BF85
:102B1C000C37BD4680BC704780B483B000AF786082
:102B2C0000BF0C37BD4680BC704780B483B000AF8B
:102B3C00786000BF0C37BD4680BC704780B483B052
:102B4C0000AF786000BF0C37BD4680BC70470000FA
:102B5C0080B485B000AF786039607B681B68FB601F
:102B6C007B682B4A934207D07B68B3F1804F03D02C
:102B7C007B68284A934208D1FB6823F07003FB6002
:102B8C003B685B68FA681343FB607B68204A93429E
:102B9C0007D07B68B3F1804F03D07B681D4A93420A
:102BAC0008D1FB6823F44073FB603B68DB68FA6870
:102BBC001343FB60FB6823F080023B685B691343A3
:102BCC00FB607B68FA681A603B689A687B68DA621B
:102BDC003B681A687B689A627B680D4A934203D102
:102BEC003B681A697B681A637B6801225A617B68AF
:102BFC001B6903F00103002B05D07B681B6923F0D4
:102C0C0001027B681A6100BF1437BD4680BC704757
:102C1C00002C01400004004080B487B000AFF86085
:102C2C00B9607A60FB681B6A7B61FB681B6A23F0E6
:102C3C000102FB681A62FB689B693B613B6923F0EC
:102C4C00F0033B617B681B013A6913433B617B6971
:102C5C0023F00A037B617A69BB6813437B61FB68D1
:102C6C003A699A61FB687A691A6200BF1C37BD46E3
:102C7C0080BC704780B487B000AFF860B9607A60F0
:102C8C00FB681B6A7B61FB681B6A23F01002FB6804
:102C9C001A62FB689B693B613B6923F470433B619F
:102CAC007B681B033A6913433B617B6923F0A003E8
:102CBC007B61BB681B017A6913437B61FB683A69D2
:102CCC009A61FB687A691A6200BF1C37BD4680BCEA
:102CDC00704780B485B000AF786039607B689B68C2
:102CEC00FB60FB6823F07003FB603A68FB681343DE
:102CFC0043F00703FB607B68FA689A6000BF1437E7
:102D0C00BD4680BC704780B487B000AFF860B96036
:102D1C007A603B60FB689B687B617B6923F47F4333
:102D2C007B613B681A027B681A43BB6813437A6960
:102D3C0013437B61FB687A699A6000BF1C37BD4600
:102D4C0080BC704780B485B000AF786039607B6818
:102D5C0093F83C30012B01D1022341E07B68012226
:102D6C0083F83C207B68022283F83D207B681B683B
:102D7C005B68FB607B681B689B68BB60FB6823F02F
:102D8C007003FB603B681B68FA681343FB607B684D
:102D9C001B68FA685A607B681B68144A934209D016
:102DAC007B681B68B3F1804F04D07B681B68104AAA
:102DBC0093420CD1BB6823F08003BB603B685B681B
:102DCC00BA681343BB607B681B68BA689A607B68FF
:102DDC00012283F83D207B68002283F83C200023ED
:102DEC0018461437BD4680BC704700BF002C01400C
:102DFC000004004080B483B000AF786000BF0C3793
:102E0C00BD4680BC704780B483B000AF786000BF13
:102E1C000C37BD4680BC704703460244934200D138
:102E2C00704703F8011BF9E770B500260C4D0D4CEB
:102E3C00641BA410A64209D100F01AF800260A4D12
:102E4C000A4C641BA410A64205D170BD55F8043B76
:102E5C0098470136EEE755F8043B98470136F2E700
:102E6C00B82E0008B82E0008B82E0008BC2E00089A
:102E7C00F8B500BFF8BC08BC9E467047F8B500BF5B
:082E8C00F8BC08BC9E4670472B
:102E94000000000000000000010203040607080906
:102EA40002030405060708090A0B0C0D0E0F101087
:042EB4000102000017
:042EB80031010008DC
:042EBC000D010008FC
:102EC00001000000010000000100000001000000FE
:102ED000F40100000000000000000000000C0140B0
:102EE00000100000010000000100000001000000CF
:102EF00001000000F40100000000000000000000DC
:102F0000000C014000200000010000000100000052
:102F10000100000001000000F401000000000000BA
:102F200000000000000C0140004000000000000014
:102F30000500000000000000030000000400000085
:102F4000010000000300000000127A0010000000E1
:042F5000010000007C
:04000005080017FDDB
:00000001FF
